{
  "_format": "hh-sol-artifact-1",
  "contractName": "CrowdFunding",
  "sourceName": "contracts/CrowdFunding.sol",
  "abi": [
    {
      "inputs": [
        {
          "internalType": "uint256",
          "name": "_id",
          "type": "uint256"
        },
        {
          "internalType": "string",
          "name": "_name",
          "type": "string"
        }
      ],
      "name": "InvestInProject",
      "outputs": [
        {
          "internalType": "uint256",
          "name": "",
          "type": "uint256"
        }
      ],
      "stateMutability": "payable",
      "type": "function"
    },
    {
      "inputs": [
        {
          "internalType": "uint256",
          "name": "_id",
          "type": "uint256"
        }
      ],
      "name": "abortProject",
      "outputs": [],
      "stateMutability": "nonpayable",
      "type": "function"
    },
    {
      "inputs": [
        {
          "internalType": "string[14]",
          "name": "strArr",
          "type": "string[14]"
        },
        {
          "internalType": "uint256[7]",
          "name": "intArr",
          "type": "uint256[7]"
        },
        {
          "internalType": "address",
          "name": "_owner",
          "type": "address"
        },
        {
          "internalType": "string",
          "name": "_category",
          "type": "string"
        }
      ],
      "name": "createProject",
      "outputs": [
        {
          "internalType": "uint256",
          "name": "",
          "type": "uint256"
        }
      ],
      "stateMutability": "payable",
      "type": "function"
    },
    {
      "inputs": [
        {
          "internalType": "uint256",
          "name": "_toDelete",
          "type": "uint256"
        }
      ],
      "name": "deleteProject",
      "outputs": [
        {
          "internalType": "uint256",
          "name": "",
          "type": "uint256"
        }
      ],
      "stateMutability": "nonpayable",
      "type": "function"
    },
    {
      "inputs": [
        {
          "internalType": "uint256",
          "name": "_id",
          "type": "uint256"
        }
      ],
      "name": "getBalance",
      "outputs": [
        {
          "internalType": "uint256",
          "name": "",
          "type": "uint256"
        }
      ],
      "stateMutability": "view",
      "type": "function"
    },
    {
      "inputs": [
        {
          "internalType": "uint256",
          "name": "_id",
          "type": "uint256"
        }
      ],
      "name": "getDonators",
      "outputs": [
        {
          "internalType": "address[]",
          "name": "",
          "type": "address[]"
        }
      ],
      "stateMutability": "view",
      "type": "function"
    },
    {
      "inputs": [],
      "name": "getProjects",
      "outputs": [
        {
          "components": [
            {
              "internalType": "string[14]",
              "name": "stringArray",
              "type": "string[14]"
            },
            {
              "internalType": "uint256[7]",
              "name": "intArray",
              "type": "uint256[7]"
            },
            {
              "internalType": "address",
              "name": "owner",
              "type": "address"
            },
            {
              "internalType": "address[]",
              "name": "donators",
              "type": "address[]"
            },
            {
              "internalType": "uint256[]",
              "name": "donations",
              "type": "uint256[]"
            },
            {
              "internalType": "string[]",
              "name": "donators_name",
              "type": "string[]"
            },
            {
              "internalType": "string",
              "name": "category",
              "type": "string"
            },
            {
              "components": [
                {
                  "internalType": "uint256",
                  "name": "id",
                  "type": "uint256"
                },
                {
                  "internalType": "string",
                  "name": "update",
                  "type": "string"
                },
                {
                  "internalType": "int256",
                  "name": "votes",
                  "type": "int256"
                },
                {
                  "internalType": "address[]",
                  "name": "voters",
                  "type": "address[]"
                },
                {
                  "internalType": "uint256",
                  "name": "deadline",
                  "type": "uint256"
                }
              ],
              "internalType": "struct CrowdFunding.Update[]",
              "name": "updates",
              "type": "tuple[]"
            },
            {
              "internalType": "uint256",
              "name": "totalUpdates",
              "type": "uint256"
            }
          ],
          "internalType": "struct CrowdFunding.Project[]",
          "name": "",
          "type": "tuple[]"
        }
      ],
      "stateMutability": "view",
      "type": "function"
    },
    {
      "inputs": [
        {
          "internalType": "uint256",
          "name": "_id",
          "type": "uint256"
        },
        {
          "internalType": "uint256",
          "name": "_id1",
          "type": "uint256"
        },
        {
          "internalType": "address",
          "name": "_voter",
          "type": "address"
        },
        {
          "internalType": "uint256",
          "name": "_vote",
          "type": "uint256"
        }
      ],
      "name": "makeResponse",
      "outputs": [],
      "stateMutability": "nonpayable",
      "type": "function"
    },
    {
      "inputs": [
        {
          "internalType": "uint256",
          "name": "_id",
          "type": "uint256"
        },
        {
          "internalType": "string",
          "name": "_update",
          "type": "string"
        },
        {
          "internalType": "uint256",
          "name": "_deadline",
          "type": "uint256"
        }
      ],
      "name": "makeUpdate",
      "outputs": [],
      "stateMutability": "nonpayable",
      "type": "function"
    },
    {
      "inputs": [],
      "name": "numberOfProjects",
      "outputs": [
        {
          "internalType": "uint256",
          "name": "",
          "type": "uint256"
        }
      ],
      "stateMutability": "view",
      "type": "function"
    },
    {
      "inputs": [],
      "name": "numberOfUpdates",
      "outputs": [
        {
          "internalType": "uint256",
          "name": "",
          "type": "uint256"
        }
      ],
      "stateMutability": "view",
      "type": "function"
    },
    {
      "inputs": [
        {
          "internalType": "uint256",
          "name": "",
          "type": "uint256"
        }
      ],
      "name": "projects",
      "outputs": [
        {
          "internalType": "address",
          "name": "owner",
          "type": "address"
        },
        {
          "internalType": "string",
          "name": "category",
          "type": "string"
        },
        {
          "internalType": "uint256",
          "name": "totalUpdates",
          "type": "uint256"
        }
      ],
      "stateMutability": "view",
      "type": "function"
    },
    {
      "inputs": [
        {
          "internalType": "uint256",
          "name": "",
          "type": "uint256"
        }
      ],
      "name": "updates",
      "outputs": [
        {
          "internalType": "uint256",
          "name": "id",
          "type": "uint256"
        },
        {
          "internalType": "string",
          "name": "update",
          "type": "string"
        },
        {
          "internalType": "int256",
          "name": "votes",
          "type": "int256"
        },
        {
          "internalType": "uint256",
          "name": "deadline",
          "type": "uint256"
        }
      ],
      "stateMutability": "view",
      "type": "function"
    },
    {
      "inputs": [
        {
          "internalType": "uint256",
          "name": "_id",
          "type": "uint256"
        },
        {
          "internalType": "uint256",
          "name": "_id1",
          "type": "uint256"
        }
      ],
      "name": "withdraw",
      "outputs": [],
      "stateMutability": "nonpayable",
      "type": "function"
    }
  ],
  "bytecode": "0x60806040526000600155600060035534801561001a57600080fd5b50612f278061002a6000396000f3fe6080604052600436106100dd5760003560e01c8063b4c2f7271161007f578063dcc6012811610059578063dcc60128146102e9578063ddfb31c714610314578063fea1646c1461033d578063ff67b09e1461036d576100dd565b8063b4c2f72714610253578063db5e4c7f14610293578063dcb9f271146102be576100dd565b80631e010439116100bb5780631e01043914610187578063441a3e70146101c45780634cd0cb28146101ed578063a3bfb7bd1461022a576100dd565b80630eb4d3e4146100e25780630fa91fa91461010b578063107046bd14610148575b600080fd5b3480156100ee57600080fd5b5061010960048036038101906101049190611d40565b61039d565b005b34801561011757600080fd5b50610132600480360381019061012d9190611daf565b6104b7565b60405161013f9190611ecc565b60405180910390f35b34801561015457600080fd5b5061016f600480360381019061016a9190611daf565b61055b565b60405161017e93929190611f94565b60405180910390f35b34801561019357600080fd5b506101ae60048036038101906101a99190611daf565b61062d565b6040516101bb9190611fd2565b60405180910390f35b3480156101d057600080fd5b506101eb60048036038101906101e69190611fed565b610666565b005b3480156101f957600080fd5b50610214600480360381019061020f9190611daf565b6107fa565b6040516102219190611fd2565b60405180910390f35b34801561023657600080fd5b50610251600480360381019061024c9190611daf565b610839565b005b34801561025f57600080fd5b5061027a60048036038101906102759190611daf565b610940565b60405161028a9493929190612046565b60405180910390f35b34801561029f57600080fd5b506102a86109f8565b6040516102b59190611fd2565b60405180910390f35b3480156102ca57600080fd5b506102d36109fe565b6040516102e09190611fd2565b60405180910390f35b3480156102f557600080fd5b506102fe610a04565b60405161030b91906126ef565b60405180910390f35b34801561032057600080fd5b5061033b6004803603810190610336919061273d565b611025565b005b61035760048036038101906103529190612929565b611198565b6040516103649190611fd2565b60405180910390f35b610387600480360381019061038291906129cb565b611828565b6040516103949190611fd2565b60405180910390f35b6000806000600154815260200190815260200160002090506000600260008681526020019081526020016000209050838260010190805190602001906103e4929190611976565b50828260040181905550600154826000018190555080601a0182908060018154018082558091505060019003906000526020600020906005020160009091909190915060008201548160000155600182018160010190805461044590612a56565b6104509291906119fc565b50600282015481600201556003820181600301908054610471929190611a89565b5060048201548160040155505080601b01600081548092919061049390612ab7565b9190505550600160008154809291906104ab90612ab7565b91905055505050505050565b60606002600083815260200190815260200160002060160180548060200260200160405190810160405280929190818152602001828054801561054f57602002820191906000526020600020905b8160009054906101000a900473ffffffffffffffffffffffffffffffffffffffff1673ffffffffffffffffffffffffffffffffffffffff1681526020019060010190808311610505575b50505050509050919050565b60026020528060005260406000206000915090508060150160009054906101000a900473ffffffffffffffffffffffffffffffffffffffff16908060190180546105a490612a56565b80601f01602080910402602001604051908101604052809291908181526020018280546105d090612a56565b801561061d5780601f106105f25761010080835404028352916020019161061d565b820191906000526020600020905b81548152906001019060200180831161060057829003601f168201915b50505050509080601b0154905083565b60008060026000848152602001908152602001600020905080600e0160026007811061065c5761065b612b00565b5b0154915050919050565b600060026000848152602001908152602001600020905080600e0160026007811061069457610693612b00565b5b015481600e016000600781106106ad576106ac612b00565b5b015411156106f0576040517f08c379a00000000000000000000000000000000000000000000000000000000081526004016106e790612ba1565b60405180910390fd5b600081601a01838154811061070857610707612b00565b5b9060005260206000209060050201600201541361075a576040517f08c379a000000000000000000000000000000000000000000000000000000000815260040161075190612c33565b60405180910390fd5b3373ffffffffffffffffffffffffffffffffffffffff166108fc82600e0160026007811061078b5761078a612b00565b5b01549081150290604051600060405180830381858888f193505050501580156107b8573d6000803e3d6000fd5b50600081600e016002600781106107d2576107d1612b00565b5b0181905550600181600e016003600781106107f0576107ef612b00565b5b0181905550505050565b600080600260008481526020019081526020016000209050600181600e0160036007811061082b5761082a612b00565b5b018190555082915050919050565b600060026000838152602001908152602001600020905060005b816016018054905081101561091d5781601601818154811061087857610877612b00565b5b9060005260206000200160009054906101000a900473ffffffffffffffffffffffffffffffffffffffff1673ffffffffffffffffffffffffffffffffffffffff166108fc8360170183815481106108d2576108d1612b00565b5b90600052602060002001549081150290604051600060405180830381858888f19350505050158015610908573d6000803e3d6000fd5b506001816109169190612c53565b9050610853565b50600181600e0160036007811061093757610936612b00565b5b01819055505050565b600060205280600052604060002060009150905080600001549080600101805461096990612a56565b80601f016020809104026020016040519081016040528092919081815260200182805461099590612a56565b80156109e25780601f106109b7576101008083540402835291602001916109e2565b820191906000526020600020905b8154815290600101906020018083116109c557829003601f168201915b5050505050908060020154908060040154905084565b60035481565b60015481565b6060600060035467ffffffffffffffff811115610a2457610a23611c15565b5b604051908082528060200260200182016040528015610a5d57816020015b610a4a611adb565b815260200190600190039081610a425790505b50905060005b60035481101561101d576000600260008381526020019081526020016000209050806040518061012001604052908160008201600e80602002604051908101604052809291906000905b82821015610b50578382018054610ac390612a56565b80601f0160208091040260200160405190810160405280929190818152602001828054610aef90612a56565b8015610b3c5780601f10610b1157610100808354040283529160200191610b3c565b820191906000526020600020905b815481529060010190602001808311610b1f57829003601f168201915b505050505081526020019060010190610aad565b505050508152602001600e8201600780602002604051908101604052809291908260078015610b94576020028201915b815481526020019060010190808311610b80575b505050505081526020016015820160009054906101000a900473ffffffffffffffffffffffffffffffffffffffff1673ffffffffffffffffffffffffffffffffffffffff1673ffffffffffffffffffffffffffffffffffffffff16815260200160168201805480602002602001604051908101604052809291908181526020018280548015610c7857602002820191906000526020600020905b8160009054906101000a900473ffffffffffffffffffffffffffffffffffffffff1673ffffffffffffffffffffffffffffffffffffffff1681526020019060010190808311610c2e575b5050505050815260200160178201805480602002602001604051908101604052809291908181526020018280548015610cd057602002820191906000526020600020905b815481526020019060010190808311610cbc575b5050505050815260200160188201805480602002602001604051908101604052809291908181526020016000905b82821015610daa578382906000526020600020018054610d1d90612a56565b80601f0160208091040260200160405190810160405280929190818152602001828054610d4990612a56565b8015610d965780601f10610d6b57610100808354040283529160200191610d96565b820191906000526020600020905b815481529060010190602001808311610d7957829003601f168201915b505050505081526020019060010190610cfe565b505050508152602001601982018054610dc290612a56565b80601f0160208091040260200160405190810160405280929190818152602001828054610dee90612a56565b8015610e3b5780601f10610e1057610100808354040283529160200191610e3b565b820191906000526020600020905b815481529060010190602001808311610e1e57829003601f168201915b50505050508152602001601a8201805480602002602001604051908101604052809291908181526020016000905b82821015610fd957838290600052602060002090600502016040518060a001604052908160008201548152602001600182018054610ea690612a56565b80601f0160208091040260200160405190810160405280929190818152602001828054610ed290612a56565b8015610f1f5780601f10610ef457610100808354040283529160200191610f1f565b820191906000526020600020905b815481529060010190602001808311610f0257829003601f168201915b505050505081526020016002820154815260200160038201805480602002602001604051908101604052809291908181526020018280548015610fb757602002820191906000526020600020905b8160009054906101000a900473ffffffffffffffffffffffffffffffffffffffff1673ffffffffffffffffffffffffffffffffffffffff1681526020019060010190808311610f6d575b5050505050815260200160048201548152505081526020019060010190610e69565b505050508152602001601b82015481525050838381518110610ffe57610ffd612b00565b5b602002602001018190525050808061101590612ab7565b915050610a63565b508091505090565b600060026000868152602001908152602001600020905080601a01848154811061105257611051612b00565b5b9060005260206000209060050201600301839080600181540180825580915050600190039060005260206000200160009091909190916101000a81548173ffffffffffffffffffffffffffffffffffffffff021916908373ffffffffffffffffffffffffffffffffffffffff160217905550600182141561113157600181601a0185815481106110e5576110e4612b00565b5b9060005260206000209060050201600201546111019190612ca9565b81601a01858154811061111757611116612b00565b5b906000526020600020906005020160020181905550611191565b600181601a01858154811061114957611148612b00565b5b9060005260206000209060050201600201546111659190612d3d565b81601a01858154811061117b5761117a612b00565b5b9060005260206000209060050201600201819055505b5050505050565b60008060026000600354815260200190815260200160002090504281600e016001600781106111ca576111c9612b00565b5b01541061120c576040517f08c379a000000000000000000000000000000000000000000000000000000000815260040161120390612e43565b60405180910390fd5b670de0b6b3a76400008560006007811061122957611228612b00565b5b60200201516112389190612e63565b81600e0160006007811061124f5761124e612b00565b5b01819055508460016007811061126857611267612b00565b5b602002015181600e0160016007811061128457611283612b00565b5b01819055508460026007811061129d5761129c612b00565b5b602002015181600e016002600781106112b9576112b8612b00565b5b0181905550846003600781106112d2576112d1612b00565b5b602002015181600e016003600781106112ee576112ed612b00565b5b0181905550670de0b6b3a7640000856004600781106113105761130f612b00565b5b602002015161131f9190612e63565b81600e0160046007811061133657611335612b00565b5b0181905550670de0b6b3a76400008560056007811061135857611357612b00565b5b60200201516113679190612e63565b81600e0160056007811061137e5761137d612b00565b5b018190555066038d7ea4c680008560066007811061139f5761139e612b00565b5b60200201516113ae9190612e63565b81600e016006600781106113c5576113c4612b00565b5b0181905550856000600e81106113de576113dd612b00565b5b6020020151816000016000600e81106113fa576113f9612b00565b5b01908051906020019061140e929190611976565b50856001600e811061142357611422612b00565b5b6020020151816000016001600e811061143f5761143e612b00565b5b019080519060200190611453929190611976565b50856002600e811061146857611467612b00565b5b6020020151816000016002600e811061148457611483612b00565b5b019080519060200190611498929190611976565b50856003600e81106114ad576114ac612b00565b5b6020020151816000016003600e81106114c9576114c8612b00565b5b0190805190602001906114dd929190611976565b50856004600e81106114f2576114f1612b00565b5b6020020151816000016004600e811061150e5761150d612b00565b5b019080519060200190611522929190611976565b50856005600e811061153757611536612b00565b5b6020020151816000016005600e811061155357611552612b00565b5b019080519060200190611567929190611976565b50856006600e811061157c5761157b612b00565b5b6020020151816000016006600e811061159857611597612b00565b5b0190805190602001906115ac929190611976565b50856007600e81106115c1576115c0612b00565b5b6020020151816000016007600e81106115dd576115dc612b00565b5b0190805190602001906115f1929190611976565b50856008600e811061160657611605612b00565b5b6020020151816000016008600e811061162257611621612b00565b5b019080519060200190611636929190611976565b50856009600e811061164b5761164a612b00565b5b6020020151816000016009600e811061166757611666612b00565b5b01908051906020019061167b929190611976565b5085600a600e81106116905761168f612b00565b5b602002015181600001600a600e81106116ac576116ab612b00565b5b0190805190602001906116c0929190611976565b5085600b600e81106116d5576116d4612b00565b5b602002015181600001600b600e81106116f1576116f0612b00565b5b019080519060200190611705929190611976565b5085600c600e811061171a57611719612b00565b5b602002015181600001600c600e811061173657611735612b00565b5b01908051906020019061174a929190611976565b5085600d600e811061175f5761175e612b00565b5b602002015181600001600d600e811061177b5761177a612b00565b5b01908051906020019061178f929190611976565b50600081601b0181905550828160190190805190602001906117b2929190611976565b50838160150160006101000a81548173ffffffffffffffffffffffffffffffffffffffff021916908373ffffffffffffffffffffffffffffffffffffffff1602179055506003600081548092919061180990612ab7565b9190505550600160035461181d9190612ebd565b915050949350505050565b600080349050600060026000868152602001908152602001600020905080601601339080600181540180825580915050600190039060005260206000200160009091909190916101000a81548173ffffffffffffffffffffffffffffffffffffffff021916908373ffffffffffffffffffffffffffffffffffffffff160217905550806017018290806001815401808255809150506001900390600052602060002001600090919091909150558060180184908060018154018082558091505060019003906000526020600020016000909190919091509080519060200190611912929190611976565b508181600e0160026007811061192b5761192a612b00565b5b01546119379190612c53565b81600e0160026007811061194e5761194d612b00565b5b018190555080600e0160026007811061196a57611969612b00565b5b01549250505092915050565b82805461198290612a56565b90600052602060002090601f0160209004810192826119a457600085556119eb565b82601f106119bd57805160ff19168380011785556119eb565b828001600101855582156119eb579182015b828111156119ea5782518255916020019190600101906119cf565b5b5090506119f89190611b49565b5090565b828054611a0890612a56565b90600052602060002090601f016020900481019282611a2a5760008555611a78565b82601f10611a3b5780548555611a78565b82800160010185558215611a7857600052602060002091601f016020900482015b82811115611a77578254825591600101919060010190611a5c565b5b509050611a859190611b49565b5090565b828054828255906000526020600020908101928215611aca5760005260206000209182015b82811115611ac9578254825591600101919060010190611aae565b5b509050611ad79190611b49565b5090565b604051806101200160405280611aef611b66565b8152602001611afc611b8e565b8152602001600073ffffffffffffffffffffffffffffffffffffffff1681526020016060815260200160608152602001606081526020016060815260200160608152602001600081525090565b5b80821115611b62576000816000905550600101611b4a565b5090565b604051806101c00160405280600e905b6060815260200190600190039081611b765790505090565b6040518060e00160405280600790602082028036833780820191505090505090565b6000604051905090565b600080fd5b600080fd5b6000819050919050565b611bd781611bc4565b8114611be257600080fd5b50565b600081359050611bf481611bce565b92915050565b600080fd5b600080fd5b6000601f19601f8301169050919050565b7f4e487b7100000000000000000000000000000000000000000000000000000000600052604160045260246000fd5b611c4d82611c04565b810181811067ffffffffffffffff82111715611c6c57611c6b611c15565b5b80604052505050565b6000611c7f611bb0565b9050611c8b8282611c44565b919050565b600067ffffffffffffffff821115611cab57611caa611c15565b5b611cb482611c04565b9050602081019050919050565b82818337600083830152505050565b6000611ce3611cde84611c90565b611c75565b905082815260208101848484011115611cff57611cfe611bff565b5b611d0a848285611cc1565b509392505050565b600082601f830112611d2757611d26611bfa565b5b8135611d37848260208601611cd0565b91505092915050565b600080600060608486031215611d5957611d58611bba565b5b6000611d6786828701611be5565b935050602084013567ffffffffffffffff811115611d8857611d87611bbf565b5b611d9486828701611d12565b9250506040611da586828701611be5565b9150509250925092565b600060208284031215611dc557611dc4611bba565b5b6000611dd384828501611be5565b91505092915050565b600081519050919050565b600082825260208201905092915050565b6000819050602082019050919050565b600073ffffffffffffffffffffffffffffffffffffffff82169050919050565b6000611e3382611e08565b9050919050565b611e4381611e28565b82525050565b6000611e558383611e3a565b60208301905092915050565b6000602082019050919050565b6000611e7982611ddc565b611e838185611de7565b9350611e8e83611df8565b8060005b83811015611ebf578151611ea68882611e49565b9750611eb183611e61565b925050600181019050611e92565b5085935050505092915050565b60006020820190508181036000830152611ee68184611e6e565b905092915050565b611ef781611e28565b82525050565b600081519050919050565b600082825260208201905092915050565b60005b83811015611f37578082015181840152602081019050611f1c565b83811115611f46576000848401525b50505050565b6000611f5782611efd565b611f618185611f08565b9350611f71818560208601611f19565b611f7a81611c04565b840191505092915050565b611f8e81611bc4565b82525050565b6000606082019050611fa96000830186611eee565b8181036020830152611fbb8185611f4c565b9050611fca6040830184611f85565b949350505050565b6000602082019050611fe76000830184611f85565b92915050565b6000806040838503121561200457612003611bba565b5b600061201285828601611be5565b925050602061202385828601611be5565b9150509250929050565b6000819050919050565b6120408161202d565b82525050565b600060808201905061205b6000830187611f85565b818103602083015261206d8186611f4c565b905061207c6040830185612037565b6120896060830184611f85565b95945050505050565b600081519050919050565b600082825260208201905092915050565b6000819050602082019050919050565b6000600e9050919050565b600081905092915050565b6000819050919050565b600082825260208201905092915050565b60006120fa82611efd565b61210481856120de565b9350612114818560208601611f19565b61211d81611c04565b840191505092915050565b600061213483836120ef565b905092915050565b6000602082019050919050565b6000612154826120be565b61215e81856120c9565b935083602082028501612170856120d4565b8060005b858110156121ac578484038952815161218d8582612128565b94506121988361213c565b925060208a01995050600181019050612174565b50829750879550505050505092915050565b600060079050919050565b600081905092915050565b6000819050919050565b6121e781611bc4565b82525050565b60006121f983836121de565b60208301905092915050565b6000602082019050919050565b61221b816121be565b61222581846121c9565b9250612230826121d4565b8060005b8381101561226157815161224887826121ed565b965061225383612205565b925050600181019050612234565b505050505050565b600082825260208201905092915050565b600061228582611ddc565b61228f8185612269565b935061229a83611df8565b8060005b838110156122cb5781516122b28882611e49565b97506122bd83611e61565b92505060018101905061229e565b5085935050505092915050565b600081519050919050565b600082825260208201905092915050565b6000819050602082019050919050565b6000602082019050919050565b600061231c826122d8565b61232681856122e3565b9350612331836122f4565b8060005b8381101561236257815161234988826121ed565b975061235483612304565b925050600181019050612335565b5085935050505092915050565b600081519050919050565b600082825260208201905092915050565b6000819050602082019050919050565b6000602082019050919050565b60006123b38261236f565b6123bd818561237a565b9350836020820285016123cf8561238b565b8060005b8581101561240b57848403895281516123ec8582612128565b94506123f78361239b565b925060208a019950506001810190506123d3565b50829750879550505050505092915050565b600081519050919050565b600082825260208201905092915050565b6000819050602082019050919050565b6124528161202d565b82525050565b600060a08301600083015161247060008601826121de565b506020830151848203602086015261248882826120ef565b915050604083015161249d6040860182612449565b50606083015184820360608601526124b5828261227a565b91505060808301516124ca60808601826121de565b508091505092915050565b60006124e18383612458565b905092915050565b6000602082019050919050565b60006125018261241d565b61250b8185612428565b93508360208202850161251d85612439565b8060005b85811015612559578484038952815161253a85826124d5565b9450612545836124e9565b925060208a01995050600181019050612521565b50829750879550505050505092915050565b60006101e08301600083015184820360008601526125898282612149565b915050602083015161259e6020860182612212565b5060408301516125b2610100860182611e3a565b5060608301518482036101208601526125cb828261227a565b91505060808301518482036101408601526125e68282612311565b91505060a083015184820361016086015261260182826123a8565b91505060c083015184820361018086015261261c82826120ef565b91505060e08301518482036101a086015261263782826124f6565b91505061010083015161264e6101c08601826121de565b508091505092915050565b6000612665838361256b565b905092915050565b6000602082019050919050565b600061268582612092565b61268f818561209d565b9350836020820285016126a1856120ae565b8060005b858110156126dd57848403895281516126be8582612659565b94506126c98361266d565b925060208a019950506001810190506126a5565b50829750879550505050505092915050565b60006020820190508181036000830152612709818461267a565b905092915050565b61271a81611e28565b811461272557600080fd5b50565b60008135905061273781612711565b92915050565b6000806000806080858703121561275757612756611bba565b5b600061276587828801611be5565b945050602061277687828801611be5565b935050604061278787828801612728565b925050606061279887828801611be5565b91505092959194509250565b600067ffffffffffffffff8211156127bf576127be611c15565b5b602082029050919050565b600080fd5b60006127e26127dd846127a4565b611c75565b905080602084028301858111156127fc576127fb6127ca565b5b835b8181101561284357803567ffffffffffffffff81111561282157612820611bfa565b5b80860161282e8982611d12565b855260208501945050506020810190506127fe565b5050509392505050565b600082601f83011261286257612861611bfa565b5b600e61286f8482856127cf565b91505092915050565b600067ffffffffffffffff82111561289357612892611c15565b5b602082029050919050565b60006128b16128ac84612878565b611c75565b905080602084028301858111156128cb576128ca6127ca565b5b835b818110156128f457806128e08882611be5565b8452602084019350506020810190506128cd565b5050509392505050565b600082601f83011261291357612912611bfa565b5b600761292084828561289e565b91505092915050565b600080600080610140858703121561294457612943611bba565b5b600085013567ffffffffffffffff81111561296257612961611bbf565b5b61296e8782880161284d565b945050602061297f878288016128fe565b93505061010061299187828801612728565b92505061012085013567ffffffffffffffff8111156129b3576129b2611bbf565b5b6129bf87828801611d12565b91505092959194509250565b600080604083850312156129e2576129e1611bba565b5b60006129f085828601611be5565b925050602083013567ffffffffffffffff811115612a1157612a10611bbf565b5b612a1d85828601611d12565b9150509250929050565b7f4e487b7100000000000000000000000000000000000000000000000000000000600052602260045260246000fd5b60006002820490506001821680612a6e57607f821691505b60208210811415612a8257612a81612a27565b5b50919050565b7f4e487b7100000000000000000000000000000000000000000000000000000000600052601160045260246000fd5b6000612ac282611bc4565b91507fffffffffffffffffffffffffffffffffffffffffffffffffffffffffffffffff821415612af557612af4612a88565b5b600182019050919050565b7f4e487b7100000000000000000000000000000000000000000000000000000000600052603260045260246000fd5b7f596f75722070726f6a65637420636f756c64206e6f742072656163682074686560008201527f207461726765742077697468696e20646561646c696e65000000000000000000602082015250565b6000612b8b603783611f08565b9150612b9682612b2f565b604082019050919050565b60006020820190508181036000830152612bba81612b7e565b9050919050565b7f596f7572207265717565737420646f6573206e6f74206861766520656e6f756760008201527f6820766f74657300000000000000000000000000000000000000000000000000602082015250565b6000612c1d602783611f08565b9150612c2882612bc1565b604082019050919050565b60006020820190508181036000830152612c4c81612c10565b9050919050565b6000612c5e82611bc4565b9150612c6983611bc4565b9250827fffffffffffffffffffffffffffffffffffffffffffffffffffffffffffffffff03821115612c9e57612c9d612a88565b5b828201905092915050565b6000612cb48261202d565b9150612cbf8361202d565b9250817f7fffffffffffffffffffffffffffffffffffffffffffffffffffffffffffffff03831360008312151615612cfa57612cf9612a88565b5b817f8000000000000000000000000000000000000000000000000000000000000000038312600083121615612d3257612d31612a88565b5b828201905092915050565b6000612d488261202d565b9150612d538361202d565b9250827f800000000000000000000000000000000000000000000000000000000000000001821260008412151615612d8e57612d8d612a88565b5b827f7fffffffffffffffffffffffffffffffffffffffffffffffffffffffffffffff018213600084121615612dc657612dc5612a88565b5b828203905092915050565b7f54686520646561646c696e652073686f756c642062652061206461746520696e60008201527f20746865206675747572652e0000000000000000000000000000000000000000602082015250565b6000612e2d602c83611f08565b9150612e3882612dd1565b604082019050919050565b60006020820190508181036000830152612e5c81612e20565b9050919050565b6000612e6e82611bc4565b9150612e7983611bc4565b9250817fffffffffffffffffffffffffffffffffffffffffffffffffffffffffffffffff0483118215151615612eb257612eb1612a88565b5b828202905092915050565b6000612ec882611bc4565b9150612ed383611bc4565b925082821015612ee657612ee5612a88565b5b82820390509291505056fea26469706673582212207289687d7fdb07a08809b5613a5499267c505be6e1499ee677cc638728b2e04264736f6c634300080a0033",
  "linkReferences": {},
  "deployedLinkReferences": {}
}